{
  "_format": "hh-sol-artifact-1",
  "contractName": "EcoMint",
  "sourceName": "contracts/EcoMint.sol",
  "abi": [
    {
      "inputs": [],
      "stateMutability": "nonpayable",
      "type": "constructor"
    },
    {
      "inputs": [
        {
          "internalType": "address",
          "name": "spender",
          "type": "address"
        },
        {
          "internalType": "uint256",
          "name": "allowance",
          "type": "uint256"
        },
        {
          "internalType": "uint256",
          "name": "needed",
          "type": "uint256"
        }
      ],
      "name": "ERC20InsufficientAllowance",
      "type": "error"
    },
    {
      "inputs": [
        {
          "internalType": "address",
          "name": "sender",
          "type": "address"
        },
        {
          "internalType": "uint256",
          "name": "balance",
          "type": "uint256"
        },
        {
          "internalType": "uint256",
          "name": "needed",
          "type": "uint256"
        }
      ],
      "name": "ERC20InsufficientBalance",
      "type": "error"
    },
    {
      "inputs": [
        {
          "internalType": "address",
          "name": "approver",
          "type": "address"
        }
      ],
      "name": "ERC20InvalidApprover",
      "type": "error"
    },
    {
      "inputs": [
        {
          "internalType": "address",
          "name": "receiver",
          "type": "address"
        }
      ],
      "name": "ERC20InvalidReceiver",
      "type": "error"
    },
    {
      "inputs": [
        {
          "internalType": "address",
          "name": "sender",
          "type": "address"
        }
      ],
      "name": "ERC20InvalidSender",
      "type": "error"
    },
    {
      "inputs": [
        {
          "internalType": "address",
          "name": "spender",
          "type": "address"
        }
      ],
      "name": "ERC20InvalidSpender",
      "type": "error"
    },
    {
      "anonymous": false,
      "inputs": [
        {
          "indexed": true,
          "internalType": "address",
          "name": "owner",
          "type": "address"
        },
        {
          "indexed": true,
          "internalType": "address",
          "name": "spender",
          "type": "address"
        },
        {
          "indexed": false,
          "internalType": "uint256",
          "name": "value",
          "type": "uint256"
        }
      ],
      "name": "Approval",
      "type": "event"
    },
    {
      "anonymous": false,
      "inputs": [
        {
          "indexed": true,
          "internalType": "address",
          "name": "from",
          "type": "address"
        },
        {
          "indexed": true,
          "internalType": "address",
          "name": "to",
          "type": "address"
        },
        {
          "indexed": false,
          "internalType": "uint256",
          "name": "value",
          "type": "uint256"
        }
      ],
      "name": "Transfer",
      "type": "event"
    },
    {
      "inputs": [
        {
          "internalType": "address",
          "name": "owner",
          "type": "address"
        },
        {
          "internalType": "address",
          "name": "spender",
          "type": "address"
        }
      ],
      "name": "allowance",
      "outputs": [
        {
          "internalType": "uint256",
          "name": "",
          "type": "uint256"
        }
      ],
      "stateMutability": "view",
      "type": "function"
    },
    {
      "inputs": [
        {
          "internalType": "address",
          "name": "spender",
          "type": "address"
        },
        {
          "internalType": "uint256",
          "name": "value",
          "type": "uint256"
        }
      ],
      "name": "approve",
      "outputs": [
        {
          "internalType": "bool",
          "name": "",
          "type": "bool"
        }
      ],
      "stateMutability": "nonpayable",
      "type": "function"
    },
    {
      "inputs": [
        {
          "internalType": "address",
          "name": "account",
          "type": "address"
        }
      ],
      "name": "balanceOf",
      "outputs": [
        {
          "internalType": "uint256",
          "name": "",
          "type": "uint256"
        }
      ],
      "stateMutability": "view",
      "type": "function"
    },
    {
      "inputs": [
        {
          "internalType": "uint256",
          "name": "value",
          "type": "uint256"
        }
      ],
      "name": "burn",
      "outputs": [],
      "stateMutability": "nonpayable",
      "type": "function"
    },
    {
      "inputs": [
        {
          "internalType": "address",
          "name": "account",
          "type": "address"
        },
        {
          "internalType": "uint256",
          "name": "value",
          "type": "uint256"
        }
      ],
      "name": "burnFrom",
      "outputs": [],
      "stateMutability": "nonpayable",
      "type": "function"
    },
    {
      "inputs": [],
      "name": "decimals",
      "outputs": [
        {
          "internalType": "uint8",
          "name": "",
          "type": "uint8"
        }
      ],
      "stateMutability": "view",
      "type": "function"
    },
    {
      "inputs": [],
      "name": "name",
      "outputs": [
        {
          "internalType": "string",
          "name": "",
          "type": "string"
        }
      ],
      "stateMutability": "view",
      "type": "function"
    },
    {
      "inputs": [],
      "name": "owner",
      "outputs": [
        {
          "internalType": "address",
          "name": "",
          "type": "address"
        }
      ],
      "stateMutability": "view",
      "type": "function"
    },
    {
      "inputs": [],
      "name": "symbol",
      "outputs": [
        {
          "internalType": "string",
          "name": "",
          "type": "string"
        }
      ],
      "stateMutability": "view",
      "type": "function"
    },
    {
      "inputs": [],
      "name": "totalSupply",
      "outputs": [
        {
          "internalType": "uint256",
          "name": "",
          "type": "uint256"
        }
      ],
      "stateMutability": "view",
      "type": "function"
    },
    {
      "inputs": [
        {
          "internalType": "address",
          "name": "to",
          "type": "address"
        },
        {
          "internalType": "uint256",
          "name": "value",
          "type": "uint256"
        }
      ],
      "name": "transfer",
      "outputs": [
        {
          "internalType": "bool",
          "name": "",
          "type": "bool"
        }
      ],
      "stateMutability": "nonpayable",
      "type": "function"
    },
    {
      "inputs": [
        {
          "internalType": "address",
          "name": "from",
          "type": "address"
        },
        {
          "internalType": "address",
          "name": "to",
          "type": "address"
        },
        {
          "internalType": "uint256",
          "name": "value",
          "type": "uint256"
        }
      ],
      "name": "transferFrom",
      "outputs": [
        {
          "internalType": "bool",
          "name": "",
          "type": "bool"
        }
      ],
      "stateMutability": "nonpayable",
      "type": "function"
    },
    {
      "inputs": [
        {
          "internalType": "uint256",
          "name": "amount",
          "type": "uint256"
        }
      ],
      "name": "transferTokens",
      "outputs": [],
      "stateMutability": "nonpayable",
      "type": "function"
    }
  ],
  "bytecode": "0x60806040523480156200001157600080fd5b506040518060400160405280600781526020017f45636f4d696e74000000000000000000000000000000000000000000000000008152506040518060400160405280600381526020017f45434f000000000000000000000000000000000000000000000000000000000081525081600390816200008f919062000669565b508060049081620000a1919062000669565b50505033600560006101000a81548173ffffffffffffffffffffffffffffffffffffffff021916908373ffffffffffffffffffffffffffffffffffffffff1602179055506200012333620000fa6200012960201b60201c565b600a620001089190620008e0565b6103e862000117919062000931565b6200013260201b60201c565b62000a84565b60006012905090565b600073ffffffffffffffffffffffffffffffffffffffff168273ffffffffffffffffffffffffffffffffffffffff1603620001a75760006040517fec442f050000000000000000000000000000000000000000000000000000000081526004016200019e9190620009c1565b60405180910390fd5b620001bb60008383620001bf60201b60201c565b5050565b600073ffffffffffffffffffffffffffffffffffffffff168373ffffffffffffffffffffffffffffffffffffffff160362000215578060026000828254620002089190620009de565b92505081905550620002eb565b60008060008573ffffffffffffffffffffffffffffffffffffffff1673ffffffffffffffffffffffffffffffffffffffff16815260200190815260200160002054905081811015620002a4578381836040517fe450d38c0000000000000000000000000000000000000000000000000000000081526004016200029b9392919062000a2a565b60405180910390fd5b8181036000808673ffffffffffffffffffffffffffffffffffffffff1673ffffffffffffffffffffffffffffffffffffffff16815260200190815260200160002081905550505b600073ffffffffffffffffffffffffffffffffffffffff168273ffffffffffffffffffffffffffffffffffffffff160362000336578060026000828254039250508190555062000383565b806000808473ffffffffffffffffffffffffffffffffffffffff1673ffffffffffffffffffffffffffffffffffffffff168152602001908152602001600020600082825401925050819055505b8173ffffffffffffffffffffffffffffffffffffffff168373ffffffffffffffffffffffffffffffffffffffff167fddf252ad1be2c89b69c2b068fc378daa952ba7f163c4a11628f55a4df523b3ef83604051620003e2919062000a67565b60405180910390a3505050565b600081519050919050565b7f4e487b7100000000000000000000000000000000000000000000000000000000600052604160045260246000fd5b7f4e487b7100000000000000000000000000000000000000000000000000000000600052602260045260246000fd5b600060028204905060018216806200047157607f821691505b60208210810362000487576200048662000429565b5b50919050565b60008190508160005260206000209050919050565b60006020601f8301049050919050565b600082821b905092915050565b600060088302620004f17fffffffffffffffffffffffffffffffffffffffffffffffffffffffffffffffff82620004b2565b620004fd8683620004b2565b95508019841693508086168417925050509392505050565b6000819050919050565b6000819050919050565b60006200054a620005446200053e8462000515565b6200051f565b62000515565b9050919050565b6000819050919050565b620005668362000529565b6200057e620005758262000551565b848454620004bf565b825550505050565b600090565b6200059562000586565b620005a28184846200055b565b505050565b5b81811015620005ca57620005be6000826200058b565b600181019050620005a8565b5050565b601f8211156200061957620005e3816200048d565b620005ee84620004a2565b81016020851015620005fe578190505b620006166200060d85620004a2565b830182620005a7565b50505b505050565b600082821c905092915050565b60006200063e600019846008026200061e565b1980831691505092915050565b60006200065983836200062b565b9150826002028217905092915050565b6200067482620003ef565b67ffffffffffffffff81111562000690576200068f620003fa565b5b6200069c825462000458565b620006a9828285620005ce565b600060209050601f831160018114620006e15760008415620006cc578287015190505b620006d885826200064b565b86555062000748565b601f198416620006f1866200048d565b60005b828110156200071b57848901518255600182019150602085019450602081019050620006f4565b868310156200073b578489015162000737601f8916826200062b565b8355505b6001600288020188555050505b505050505050565b7f4e487b7100000000000000000000000000000000000000000000000000000000600052601160045260246000fd5b60008160011c9050919050565b6000808291508390505b6001851115620007de57808604811115620007b657620007b562000750565b5b6001851615620007c65780820291505b8081029050620007d6856200077f565b945062000796565b94509492505050565b600082620007f95760019050620008cc565b81620008095760009050620008cc565b81600181146200082257600281146200082d5762000863565b6001915050620008cc565b60ff84111562000842576200084162000750565b5b8360020a9150848211156200085c576200085b62000750565b5b50620008cc565b5060208310610133831016604e8410600b84101617156200089d5782820a90508381111562000897576200089662000750565b5b620008cc565b620008ac84848460016200078c565b92509050818404811115620008c657620008c562000750565b5b81810290505b9392505050565b600060ff82169050919050565b6000620008ed8262000515565b9150620008fa83620008d3565b9250620009297fffffffffffffffffffffffffffffffffffffffffffffffffffffffffffffffff8484620007e7565b905092915050565b60006200093e8262000515565b91506200094b8362000515565b92508282026200095b8162000515565b9150828204841483151762000975576200097462000750565b5b5092915050565b600073ffffffffffffffffffffffffffffffffffffffff82169050919050565b6000620009a9826200097c565b9050919050565b620009bb816200099c565b82525050565b6000602082019050620009d86000830184620009b0565b92915050565b6000620009eb8262000515565b9150620009f88362000515565b925082820190508082111562000a135762000a1262000750565b5b92915050565b62000a248162000515565b82525050565b600060608201905062000a416000830186620009b0565b62000a50602083018562000a19565b62000a5f604083018462000a19565b949350505050565b600060208201905062000a7e600083018462000a19565b92915050565b6110428062000a946000396000f3fe608060405234801561001057600080fd5b50600436106100cf5760003560e01c806370a082311161008c57806395d89b411161006657806395d89b4114610214578063a9059cbb14610232578063dd62ed3e14610262578063fd9a4e6114610292576100cf565b806370a08231146101aa57806379cc6790146101da5780638da5cb5b146101f6576100cf565b806306fdde03146100d4578063095ea7b3146100f257806318160ddd1461012257806323b872dd14610140578063313ce5671461017057806342966c681461018e575b600080fd5b6100dc6102ae565b6040516100e99190610c69565b60405180910390f35b61010c60048036038101906101079190610d24565b610340565b6040516101199190610d7f565b60405180910390f35b61012a610363565b6040516101379190610da9565b60405180910390f35b61015a60048036038101906101559190610dc4565b61036d565b6040516101679190610d7f565b60405180910390f35b61017861039c565b6040516101859190610e33565b60405180910390f35b6101a860048036038101906101a39190610e4e565b6103a5565b005b6101c460048036038101906101bf9190610e7b565b6103b9565b6040516101d19190610da9565b60405180910390f35b6101f460048036038101906101ef9190610d24565b610401565b005b6101fe610421565b60405161020b9190610eb7565b60405180910390f35b61021c610447565b6040516102299190610c69565b60405180910390f35b61024c60048036038101906102479190610d24565b6104d9565b6040516102599190610d7f565b60405180910390f35b61027c60048036038101906102779190610ed2565b6104fc565b6040516102899190610da9565b60405180910390f35b6102ac60048036038101906102a79190610e4e565b610583565b005b6060600380546102bd90610f41565b80601f01602080910402602001604051908101604052809291908181526020018280546102e990610f41565b80156103365780601f1061030b57610100808354040283529160200191610336565b820191906000526020600020905b81548152906001019060200180831161031957829003601f168201915b5050505050905090565b60008061034b6105b9565b90506103588185856105c1565b600191505092915050565b6000600254905090565b6000806103786105b9565b90506103858582856105d3565b610390858585610667565b60019150509392505050565b60006012905090565b6103b66103b06105b9565b8261075b565b50565b60008060008373ffffffffffffffffffffffffffffffffffffffff1673ffffffffffffffffffffffffffffffffffffffff168152602001908152602001600020549050919050565b6104138261040d6105b9565b836105d3565b61041d828261075b565b5050565b600560009054906101000a900473ffffffffffffffffffffffffffffffffffffffff1681565b60606004805461045690610f41565b80601f016020809104026020016040519081016040528092919081815260200182805461048290610f41565b80156104cf5780601f106104a4576101008083540402835291602001916104cf565b820191906000526020600020905b8154815290600101906020018083116104b257829003601f168201915b5050505050905090565b6000806104e46105b9565b90506104f1818585610667565b600191505092915050565b6000600160008473ffffffffffffffffffffffffffffffffffffffff1673ffffffffffffffffffffffffffffffffffffffff16815260200190815260200160002060008373ffffffffffffffffffffffffffffffffffffffff1673ffffffffffffffffffffffffffffffffffffffff16815260200190815260200160002054905092915050565b60003390506105b5600560009054906101000a900473ffffffffffffffffffffffffffffffffffffffff168284610667565b5050565b600033905090565b6105ce83838360016107dd565b505050565b60006105df84846104fc565b90507fffffffffffffffffffffffffffffffffffffffffffffffffffffffffffffffff81146106615781811015610651578281836040517ffb8f41b200000000000000000000000000000000000000000000000000000000815260040161064893929190610f72565b60405180910390fd5b610660848484840360006107dd565b5b50505050565b600073ffffffffffffffffffffffffffffffffffffffff168373ffffffffffffffffffffffffffffffffffffffff16036106d95760006040517f96c6fd1e0000000000000000000000000000000000000000000000000000000081526004016106d09190610eb7565b60405180910390fd5b600073ffffffffffffffffffffffffffffffffffffffff168273ffffffffffffffffffffffffffffffffffffffff160361074b5760006040517fec442f050000000000000000000000000000000000000000000000000000000081526004016107429190610eb7565b60405180910390fd5b6107568383836109b4565b505050565b600073ffffffffffffffffffffffffffffffffffffffff168273ffffffffffffffffffffffffffffffffffffffff16036107cd5760006040517f96c6fd1e0000000000000000000000000000000000000000000000000000000081526004016107c49190610eb7565b60405180910390fd5b6107d9826000836109b4565b5050565b600073ffffffffffffffffffffffffffffffffffffffff168473ffffffffffffffffffffffffffffffffffffffff160361084f5760006040517fe602df050000000000000000000000000000000000000000000000000000000081526004016108469190610eb7565b60405180910390fd5b600073ffffffffffffffffffffffffffffffffffffffff168373ffffffffffffffffffffffffffffffffffffffff16036108c15760006040517f94280d620000000000000000000000000000000000000000000000000000000081526004016108b89190610eb7565b60405180910390fd5b81600160008673ffffffffffffffffffffffffffffffffffffffff1673ffffffffffffffffffffffffffffffffffffffff16815260200190815260200160002060008573ffffffffffffffffffffffffffffffffffffffff1673ffffffffffffffffffffffffffffffffffffffff1681526020019081526020016000208190555080156109ae578273ffffffffffffffffffffffffffffffffffffffff168473ffffffffffffffffffffffffffffffffffffffff167f8c5be1e5ebec7d5bd14f71427d1e84f3dd0314c0f7b2291e5b200ac8c7c3b925846040516109a59190610da9565b60405180910390a35b50505050565b600073ffffffffffffffffffffffffffffffffffffffff168373ffffffffffffffffffffffffffffffffffffffff1603610a065780600260008282546109fa9190610fd8565b92505081905550610ad9565b60008060008573ffffffffffffffffffffffffffffffffffffffff1673ffffffffffffffffffffffffffffffffffffffff16815260200190815260200160002054905081811015610a92578381836040517fe450d38c000000000000000000000000000000000000000000000000000000008152600401610a8993929190610f72565b60405180910390fd5b8181036000808673ffffffffffffffffffffffffffffffffffffffff1673ffffffffffffffffffffffffffffffffffffffff16815260200190815260200160002081905550505b600073ffffffffffffffffffffffffffffffffffffffff168273ffffffffffffffffffffffffffffffffffffffff1603610b225780600260008282540392505081905550610b6f565b806000808473ffffffffffffffffffffffffffffffffffffffff1673ffffffffffffffffffffffffffffffffffffffff168152602001908152602001600020600082825401925050819055505b8173ffffffffffffffffffffffffffffffffffffffff168373ffffffffffffffffffffffffffffffffffffffff167fddf252ad1be2c89b69c2b068fc378daa952ba7f163c4a11628f55a4df523b3ef83604051610bcc9190610da9565b60405180910390a3505050565b600081519050919050565b600082825260208201905092915050565b60005b83811015610c13578082015181840152602081019050610bf8565b60008484015250505050565b6000601f19601f8301169050919050565b6000610c3b82610bd9565b610c458185610be4565b9350610c55818560208601610bf5565b610c5e81610c1f565b840191505092915050565b60006020820190508181036000830152610c838184610c30565b905092915050565b600080fd5b600073ffffffffffffffffffffffffffffffffffffffff82169050919050565b6000610cbb82610c90565b9050919050565b610ccb81610cb0565b8114610cd657600080fd5b50565b600081359050610ce881610cc2565b92915050565b6000819050919050565b610d0181610cee565b8114610d0c57600080fd5b50565b600081359050610d1e81610cf8565b92915050565b60008060408385031215610d3b57610d3a610c8b565b5b6000610d4985828601610cd9565b9250506020610d5a85828601610d0f565b9150509250929050565b60008115159050919050565b610d7981610d64565b82525050565b6000602082019050610d946000830184610d70565b92915050565b610da381610cee565b82525050565b6000602082019050610dbe6000830184610d9a565b92915050565b600080600060608486031215610ddd57610ddc610c8b565b5b6000610deb86828701610cd9565b9350506020610dfc86828701610cd9565b9250506040610e0d86828701610d0f565b9150509250925092565b600060ff82169050919050565b610e2d81610e17565b82525050565b6000602082019050610e486000830184610e24565b92915050565b600060208284031215610e6457610e63610c8b565b5b6000610e7284828501610d0f565b91505092915050565b600060208284031215610e9157610e90610c8b565b5b6000610e9f84828501610cd9565b91505092915050565b610eb181610cb0565b82525050565b6000602082019050610ecc6000830184610ea8565b92915050565b60008060408385031215610ee957610ee8610c8b565b5b6000610ef785828601610cd9565b9250506020610f0885828601610cd9565b9150509250929050565b7f4e487b7100000000000000000000000000000000000000000000000000000000600052602260045260246000fd5b60006002820490506001821680610f5957607f821691505b602082108103610f6c57610f6b610f12565b5b50919050565b6000606082019050610f876000830186610ea8565b610f946020830185610d9a565b610fa16040830184610d9a565b949350505050565b7f4e487b7100000000000000000000000000000000000000000000000000000000600052601160045260246000fd5b6000610fe382610cee565b9150610fee83610cee565b925082820190508082111561100657611005610fa9565b5b9291505056fea2646970667358221220a1b6bbab5d22d8f2cbf5392ff817614c35cb0dbef1d51d3801befa4a5f4bb5f964736f6c63430008180033",
  "linkReferences": {},
  "deployedLinkReferences": {}
}